:02000002D0002C
:1040000000400D00A4530D00000006000C00050147
:084010000401BD0B00000000DB
:044018005C510D00EA
:10401C0009480A49884208B505D0094A824202D0AB
:10402C00121A01F053F80748074A0021121A01F03E
:10403C005BF8014808BD00BFB8E5032014530D0020
:10404C0020E6032020E60320F0E7032070B5074E9E
:10405C00074C00F08DFCA41BA4080025A54200D140
:10406C0070BD56F8043B98470135F7E7E4520D0054
:10407C0008530D0000F06EB808B500F039F8BDE833
:10408C00084000F037BC00F08FBA00F095BA007809
:10409C00B0FA80F0400970470123037070470000AC
:1040AC0010B1024B01221A70704700BF30E603209A
:1040BC0010B50446006808B100F07EFA204610BD29
:1040CC0010B5094C2378BFF35B8FDB070AD420466D
:1040DC00FFF7DDFF30B10548012100F0C1FA2046A1
:1040EC00FFF7DAFF014810BD24E6032028E6032081
:1040FC0037B5154D2A782AB3144CFFF7E1FF00238E
:10410C00009313490123224600F0F0FA2378312B57
:10411C0003D10121052000F054FF2378302B03D16B
:10412C000021052000F04DFF23783F2B08D10720FC
:10413C0000F060FF064B01280CBF312230221A70B0
:10414C0000232B7003B030BD30E6032040E6032083
:10415C0041E6032008B500F011FD4FF4165100F0B4
:10416C0001FD0121052000F01BFF0021072000F0BC
:10417C0017FFFFF7A5FF012100F092FAFFF7A0FF50
:10418C00002100F0A0FAFFF79BFF054900F0C1FAEF
:10419C00FFF796FFBDE808400622012100F06ABA3D
:1041AC00AD400D0038B50A4C0A4BA3600025032026
:1041BC002560A580A57100F06BF90749074A2046D8
:1041CC0000F06CFF29460120BDE8384000F068B9CA
:1041DC0034E603200000FFFFBD400D0020E6032065
:1041EC0008B5024B1B689B68019308BD680203006D
:1041FC0008B5024B1B68DB68019308BD680203001D
:10420C0008B5024B1B689B68019308BD2C02030088
:10421C0008B5024B1B68DB68019308BD2C02030038
:10422C0008B5024B1B681B69019308BD2C020300E7
:10423C0008B5024B1B685B69019308BD2C02030097
:10424C0008B5024B1B685B68019308BD180203009C
:10425C0008B5024B1B685B69019308BD180203008B
:10426C0008B5024B1B685B6C019308BD4802030048
:10427C0008B5024B1B689B6C019308BD48020300F8
:10428C0008B5024B1B685B69019308BD640203000F
:10429C0008B5024B1B681B68019308BD3C02030068
:1042AC0008B5024B1B68DB68019308BD3C02030098
:1042BC0008B5024B1B681B69019308BD3C02030047
:1042CC0008B5024B1B685B69019308BD3C020300F7
:1042DC0008B5024B1B689B69019308BD3C020300A7
:1042EC0008B5024B1B68DB69019308BD3C02030057
:1042FC0008B5024B1B681B6A019308BD3C02030006
:10430C0008B5024B1B689B6A019308BD3C02030075
:10431C0008B5024B1B681B6A019308BD28020300F9
:10432C0008B5024B1B685B6A019308BD28020300A9
:10433C0008B5024B1B689B6A019308BD2802030059
:10434C0008B5024B1B68DB6A019308BD2802030009
:10435C0008B5024B1B681B6B019308BD28020300B8
:10436C0008B5024B1B685B6B019308BD2802030068
:10437C0008B5024B1B681B6C019308BD2802030097
:10438C0008B5024B1B689B68019308BD3002030003
:10439C0008B5024B1B68DB68019308BD30020300B3
:1043AC0008B5024B1B68DB69019308BD30020300A2
:1043BC0008B5024B1B681B6A019308BD3002030051
:1043CC0008B5024B1B689B6A019308BD30020300C1
:1043DC0008B5024B1B68DB6A019308BD3002030071
:1043EC0008B5024B1B681B6B019308BD3002030020
:1043FC0008B5024B1B689B6B019308BD3002030090
:10440C0008B5024B1B681B6C019308BD30020300FE
:10441C0008B5024B1B685B6C019308BD30020300AE
:10442C0008B5024B1B681B68019308BD4C020300C6
:10443C0008B5024B1B685B68019308BD4C02030076
:10444C0008B5024B1B681B69019308BD4C020300A5
:10445C0008B5024B1B685B69019308BD4C02030055
:10446C0008B5024B1B689B69019308BD4C02030005
:10447C0008B5024B1B68DB69019308BD4C020300B5
:10448C0008B5024B1B681B6A019308BD4C02030064
:10449C0008B5024B1B685B68019308BD2002030042
:1044AC0008B5024B1B68DB6A019308BD20020300B0
:1044BC0008B5034B1B68D3F88830019308BD000086
:1044CC002002030008B5034B1B68D3F8943001930A
:1044DC0008BD00002002030008B5024B1B685B6896
:1044EC00019308BD4002030008B5024B1B689B6892
:1044FC00019308BD4002030008B5024B1B68DB6842
:10450C00019308BD4002030008B5024B1B681B69F0
:10451C00019308BD4002030008B5024B1B685B69A0
:10452C00019308BD4002030008B5024B1B689B6950
:10453C00019308BD4002030008B5024B1B68DB6900
:10454C00019308BD4002030008B5024B1B681B6AAF
:10455C00019308BD4002030008B5024B1B681B6B9E
:10456C00019308BD4002030008B5024B1B685B6B4E
:10457C00019308BD4002030008B5024B1B681B6C7D
:10458C00019308BD4002030008B5024B1B685B6C2D
:10459C00019308BD4002030008B5024B1B68DB6B9E
:1045AC00019308BD4402030008B5024B1B681B684D
:1045BC00019308BD1C02030008B5024B1B685B6825
:1045CC00019308BD1C02030008B5024B1B685B6C11
:1045DC00019308BD1C020300002240681146FFF73E
:1045EC00B3BF002240681146FFF7BEBF40680022EF
:1045FC00FFF7B2BF4068002281F00101FFF79CBFBA
:10460C00002340681A461946FFF78EBF0023406806
:10461C001A461946FFF780BF002240681146FFF783
:10462C0073BF002240681146FFF75EBF406800224E
:10463C000221FFF761BF002340681A46FFF74CBF09
:10464C00024B03225A60024A1A60704744E6032068
:10465C0078510D000021FFF7D3BE0021FFF7D8BE23
:10466C0010B5044608462170FFF79AFE00236360DC
:10467C00204610BD13B504460078CDE90021FFF7A4
:10468C00E9FFDDE90021034640B92078FFF7A0FEE1
:10469C00207802B0BDE81040FFF7DFBF02B010BDBC
:1046AC0013B5044600780191FFF7D4FF019940B986
:1046BC002078FFF765FE207802B0BDE81040FFF7C8
:1046CC00CCBF02B010BD13B5044600780191FFF7C2
:1046DC00C1FF019940B92078FFF75AFE207802B04B
:1046EC00BDE81040FFF7B9BF02B010BD30B587B0C0
:1046FC0004460A9D00950078FFF762FE3DB92078CC
:10470C0002A9FFF775FE9DF81430DB07F7D407B04C
:10471C0030BD13B5044600780191FFF79BFF01995A
:10472C00024640B92078FFF75BFE207802B0BDE866
:10473C001040FFF792BF02B010BD000010B5094B3E
:10474C00094C022200201A60084B2060A080A07146
:10475C00A360FFF79DFE2046054A0649BDE81040C0
:10476C0000F09CBC58E603204CE603200000FFFF41
:10477C0020E60320BD400D0010B50446006808B1CA
:10478C00FFF776FD204610BD10B58368044613B1C3
:10479C00032201469847204610BD000010B5064C78
:1047AC00002320462360FFF75BFD2046034A0449A3
:1047BC00BDE8104000F072BC5CE6032020E603204C
:1047CC0085470D00F8B506460D468F180024BD42EE
:1047DC000CD0336815F8011B9B6830469847031EB4
:1047EC0001DB1C44F3E7002C08BF1C462046F8BD37
:1047FC0013B50446084659B1019100F0A1FC236899
:10480C000199DB680246204602B0BDE8104018470B
:10481C0002B010BD03689B68184730B58BB00023FD
:10482C008DF82430012A98BF0A2209AC0D46B1FB41
:10483C00F2F101FB125303F0FF03092B94BF303349
:10484C003733DBB2AA4204F8013DEFD92146FFF71A
:10485C00CFFF0BB030BD002340681A461946FFF756
:10486C005BBE0000014B024A1A60704760E60320F1
:10487C00AC510D00024B1A68024B1A60704700BF16
:10488C00B8E5032064E6032010B50446FFF77CFF6F
:10489C00204610BD0348044A04490023836000F0FD
:1048AC00FDBB00BF68E6032020E6032095480D0001
:1048BC00014B1860704700BFBCE5032008B50B4BDB
:1048CC0043B100F05BF903681B699847002801DDD0
:1048DC00AFF30080064B43B100F0CEF903681B69BF
:1048EC009847002801DDAFF3008008BD00000000F0
:1048FC000000000008B5FFF7E1FFFFF7A9FC014B32
:10490C00186008BDD4E703200248034A0349121A71
:10491C0000F0DCBB00F4032004F4032010530D0062
:10492C0007B5002300931A466FF07701FFF7CAFD15
:10493C0003B05DF804FB000007B543880A2B08D0D0
:10494C00502B0BD1094B1B684BB103B05DF804EB3A
:10495C001847FFF7E5FF03B05DF804FB0023009355
:10496C001A466FF07701FFF7ADFDF4E77CE6032004
:10497C0038B5124C1248134D0021FFF725FE236861
:10498C00AB42114B0CBF012200221A7002D0FFF770
:10499C00BBFF2560FFF754FC044600F0ADFB0B4B4E
:1049AC0013B12046AFF3008000210848FFF7F4FD57
:1049BC00BDE8384006480021FFF77ABD00F403201B
:1049CC00BD480D001E1C279A78E60320000000004D
:1049DC0045490D00704710B51821044600F063FBE3
:1049EC00204610BDF0B5037D062B8DB00E4600F1B0
:1049FC0004074FF0000412D000F1080515F8011D52
:104A0C000A223046FFF709FFAF42044419D0002CAC
:104A1C00F4D02E213046FFF7FDFE0444EEE72F23A1
:104A2C006A4639460A208DF80040FFF729FC684693
:104A3C0000F086FB33680246DB68694630469847CF
:104A4C00044620460DB0F0BD10B5054B04461122AE
:104A5C0040F8043B002100F047FB204610BD00BF8E
:104A6C00D4510D000346074A10B543F8042B01F14D
:104A7C00100251F8044B43F8044B9142F9D10A78D7
:104A8C001A7010BDD4510D0010B59DF8084044EAC1
:104A9C00032343EA024242EA0161042341600375A5
:104AAC0010BD000013B5054B0360CB7800938B78D9
:104ABC004A780978FFF7E8FF02B010BDD4510D0019
:104ACC0041747047704708B50021007CFFF7C8FCA3
:104ADC0040EAE07008BD08B50121007CFFF7C0FC7E
:104AEC0040EAE07008BD08B5007CFFF7B1FC20EA95
:104AFC00E07008BD08B5007CFFF7A2FC20EAE0706E
:104B0C0008BD13B50446007C0191FFF7A1FC0028F9
:104B1C00019901DC607C20B1207CFFF7A9FC20EA24
:104B2C00E07002B010BD007CFFF7AABC10B51421D8
:104B3C00044600F0B8FA204610BD000010B54FF442
:104B4C007A73044608460021C4E90113044B236020
:104B5C000123207463741146FFF762FC204610BDDC
:104B6C00E8510D00007C0022FFF762BC10B5142246
:104B7C000446002100F0B8FA204610BD10B5104CC8
:104B8C0088B003A8FFF7F2FF2178BFF35B8F11F019
:104B9C00010111D120460191FFF779FA019958B121
:104BAC0003AA0848FFF7CAFF2046FFF775FA064A22
:104BBC000649044800F072FA024808B010BD00BF64
:104BCC0080E6032084E6032020E60320D14A0D0072
:104BDC0070474174704708B5007CFFF791FB20EAE1
:104BEC00E07008BD08B5007CFFF762FB20EAE070BE
:104BFC0008BD08B5007CFFF76BFB40EAE07008BD10
:104C0C0008B5007CFFF75CFB40EAE07008BD007C57
:104C1C00FFF766BB37B5457C04462DB1207C03B04D
:104C2C00BDE83040FFF73CBB007C0191FFF768FB0F
:104C3C0000280199F2DC284603B030BD10B51421D0
:104C4C00044600F030FA204610BD000010B54FF0BD
:104C5C00000C0446084611464FF47A72C4E901C2AE
:104C6C00044A22600122207462741A46FFF710FB7A
:104C7C00204610BD18520D0013B50E4C2178BFF311
:104C8C005B8F11F0010112D120460191FFF7FFF962
:104C9C00019960B1084A094B0948FFF7D7FF204634
:104CAC00FFF7FAF9074A0849054800F0F7F90448F4
:104CBC0002B010BD98E603209CE6032020E70320F9
:104CCC00A4E7032020E60320DD4B0D007047F8B568
:104CDC00064615460C468F18BC4206D0336814F8AD
:104CEC00011B9B6830469847F6E72846F8BD007CC8
:104CFC000022FFF70DBB007C0021FFF711BB007CED
:104D0C000021FFF715BB007C0021FFF719BB007CCD
:104D1C000021FFF71DBB10B51421044600F0C3F9A8
:104D2C00204610BD10B54FF47A7304460846002196
:104D3C00C4E90113034B236020741146FFF718FBE1
:104D4C00204610BD48520D00002240681146FFF766
:104D5C00DBBB002240681146FFF7F6BB002240681F
:104D6C001146FFF701BC40680022FFF7F5BB406815
:104D7C00002281F00101FFF7DFBB002340681A46D7
:104D8C001946FFF7D1BB002240681146FFF7ACBBB8
:104D9C00406800220221FFF7AFBB002340681A468F
:104DAC00FFF79ABB024B04225A60024A1A60704702
:104DBC00B8E7032070520D00002340681A46FFF735
:104DCC008BBB406800220221FFF796BB0022406893
:104DDC001146FFF789BB002240681146FFF794BBD0
:104DEC00002340681A461946FFF796BB002340681B
:104DFC001A461946FFF798BB40680021FFF7BCBB69
:104E0C0040680021FFF7C0BB4068002281F001011F
:104E1C00FFF792BB40680022FFF79EBB0022406860
:104E2C001146FFF7A1BB002240681146FFF78CBB6F
:104E3C002DE9F043002495B016460D460746FFF7C2
:104E4C0003FE214618220EA8009400F04DF94023D1
:104E5C00CDE90C3421466B460CAA3046FFF7C8F955
:104E6C00044600284CD1024601216868FFF74CFB30
:104E7C000221804622466868FFF746FB009E814669
:104E8C002146002E3CD000293AD17368022B03D066
:104E9C000A2B11D0F669F4E7B8F1000F0AD071694A
:104EAC0006A8043107ADFFF7FDFD0FCD3C1D0FC467
:104EBC002B6823704146EDE7B9F1000F01D149464B
:104ECC00E8E77469102201A800F00EF906238DF8AA
:104EDC00143001AD04F108031834186859682A46D7
:104EEC0003C20833A3421546F7D101A906A807ADA2
:104EFC00FFF7B8FD0FCD3C1D0FC42B682370DEE708
:104F0C000098FFF76DF9384615B0BDE8F083000046
:104F1C00024B034A1A6000225A607047C0E7032014
:104F2C00AC520D00232813B502D9002002B010BDDD
:104F3C00A0F10B03022B1AD8174C2178BFF35B8F0F
:104F4C0011F001010BD120460191FFF7A0F8019956
:104F5C0028B11248FFF784FB2046FFF79DF80F4B52
:104F6C001878FFF725FA0028DFD10120DEE70128A9
:104F7C0009D800F06BF80021007CFFF7F1F980F004
:104F8C000100C0B2D2E709380128EED8FFF774FE51
:104F9C00007CFFF7ADF9F2E7C8E70320CCE703206C
:104FAC00232838B504460D460AD8FF2908D0FFF748
:104FBC00B9FF28B129462046BDE83840FFF720B993
:104FCC0038BD38B504460D46FFF722F9FF2810D03E
:104FDC00062804D84D2323FA00F0C30709D4204631
:104FEC00FFF7A0FF28B129462046BDE83840FFF75F
:104FFC0017B938BD10B50446FFF70AF9031FDBB229
:10500C00012B08D92046FFF78DFF20B12046BDE8C3
:10501C001040FFF70DB9002010BD000038B500237B
:10502C0020254380142304460380856005610649CE
:10503C00284600F03AF804496060284600F035F83C
:10504C00E060204638BD00BFE0520D0030B50F4D7A
:10505C002978BFF35B8F11F0010487B013D1284678
:10506C00FFF715F878B101A8FFF7D8FF01AA214680
:10507C000748FFF757FE2846FFF70EF8054A064982
:10508C00034800F00BF8024807B030BDD8E7032006
:10509C00DCE7032020E60320D94C0D000B4601462B
:1050AC00184600F005B8FEF7F0BFFEF7ECBF0000A5
:1050BC0010B5054C13462CB10A4601460220AFF33D
:1050CC00008010BD2046FCE7000000000A4491421D
:1050DC0000F1FF3300D1704710B511F8014B03F804
:1050EC00014F9142F9D110BD02440346934200D1C5
:1050FC00704703F8011BF9E738B50D4B1D68AB6B16
:10510C0004467BB91820FFF74FFA0A4A0A4BA863EA
:10511C00C0E90023094B83600B2383810122002308
:10512C00C0E90423AB6B00221C615A6138BD00BF7F
:10513C00BCE503200E33CDAB34126DE6ECDE05007E
:10514C00034613F8012B002AFBD1181A01387047BB
:10515C001D400D0059400D0081400D0085400D0093
:10516C0000000000000000000000000043460D009D
:10517C0039460D002F460D0025460D0019460D0031
:10518C000D460D00054E0D000D4E0D0001460D0097
:10519C00F9450D00EF450D00E5450D003D4E0D00A8
:1051AC006170700025592D256D2D25645425483AC4
:1051BC00254D3A2553257A0061736374696D65003A
:1051CC000000000000000000F1490D00E1490D0055
:1051DC00E3490D000000000000000000D14A0D0062
:1051EC00394B0D000F4B0D00D1470D00014B0D003D
:1051FC00D34A0D00E34A0D00334B0D00F34A0D006A
:10520C00CD4A0D000000000000000000DD4B0D0039
:10521C00494C0D00214C0D00D1470D00F14B0D00F8
:10522C000D4C0D00FF4B0D001B4C0D00DF4B0D000A
:10523C00E34B0D000000000000000000D94C0D00F5
:10524C00234D0D00FB4C0D00DB4C0D00034D0D00F0
:10525C000B4D0D00134D0D001B4D0D0000000000FB
:10526C0000000000A74D0D009D4D0D00934D0D004D
:10527C00554D0D0063480D00874D0D00054E0D007A
:10528C000D4E0D007B4D0D00734D0D00694D0D0045
:10529C005F4D0D003D4E0D000000000000000000B1
:1052AC00C54D0D00CF4D0D00D94D0D00E34D0D003A
:1052BC00ED4D0D00F94D0D00054E0D000D4E0D0080
:1052CC00154E0D00214E0D00294E0D00334E0D00D4
:1052DC003D4E0D0000000000B1410D004D460D008B
:1052EC0049470D00A9470D0071480D0081480D007C
:1052FC00A1480D00B14D0D001D4F0D000000000028
:04530C00000000009D
:045310000000000099
:10531400C4510D00C0E5032000000000000000009F
:105324000000000000000000000000000000000079
:105334000000000000000000000000000000000069
:105344000000000000000000000000000000000059
:105354000000000000000000000000000000000049
:105364000000000000000000000000000000000039
:08537400000000000000000031
:10537C00FFFFFFFF00000102030405060708090AEE
:10538C000B0C0D0E0F101112131415161718191AE9
:08539C001B1C1D1E1F20280030
:0453A40078563412F1
:04000003D000401CCD
:00000001FF
